:100800004772616465000000000000000000000005
:10081000323032356A69000000000000000000003C
:100820004C756775616E7A68690000000000000011
:100830003231303633350000000000000000000087
:100840004C61697765696A756E0000000000000000
:10085000323130363431000000000000000000006A
:1008600057616E67716968756100000000000000E3
:10087000323130363033000000000000000000004C
:10088000516979756E7A686500000000000000000B
:10089000323130363034000000000000000000002B
:0B08A000D296120A12120994E4F50827
:1008AB00E4F529F52AE508C43354E02400F582E485
:1008BB003408F583E582252AF582E43583F583E454
:1008CB0093FF600EAE29052974092EF8A607052A99
:1008DB0080D3AF29052974092FF87620E4F52AE592
:1008EB0008C43354E02410F582E43408F583E58220
:1008FB00252AF582E43583F583E493FF600EAE2958
:10090B00052974092EF8A607052A80D37409252911
:10091B00F8E4F6FB7A00790912093B120A59120A1C
:01092B0012B9
:0F092C000508E508C3940550030208AB0208A8AC
:100A6E008F31120A43D290C291853180D292120AEE
:040A7E0082C292227C
:0609F4007D017C007F0183
:1009FA008F31ED4C6003120A43C290C29185318057
:080A0A00D292120A82C292226C
:100A43007580FFC290D291D292120A82E58020E78C
:060A5300FBC2927F0122AC
:100994007D017C007F301209FA120A827D017C00FD
:1009A4007F0C1209FA120A821209F4120A827D01DA
:1009B4007C007F061209FA7D017C007F341209FA5B
:0309C400020A82A2
:100A59001209F47D017C007F341209FA7D017C00C2
:050A69007F300209FAD4
:020A2B008B300E
:100A2D00BD011253070FEF2480FFE4FDFC1209FAFC
:050A3D00AF30120A6E4B
:010A42002291
:06093B008B2B8A2C892D94
:10094100E4F52FAB2BAA2CA92D852F8275830012DC
:1009510009C76004052F80EB120A59E4F52EE52E34
:10096100C3952F5022E52EC39410501BAB2BAA2CFC
:10097100A92D852E827583001209C7FB7D01AF2E3B
:10098100120A2B052E80D7120A12120A12120A120B
:03099100020A1245
:0E0A82007FB07E15EF1FAC0670011E4C70F6A3
:010A90002243
:100A12007D05AC051DEC60107E1C7F65EF1FAA06EC
:080A220070011E4A60EC80F433
:010A2A0022A9
:03000000020A9160
:0C0A9100787FE4F6D8FD7581310208A0E2
:1009C700BB010CE58229F582E5833AF583E02250E5
:1009D70006E92582F8E622BBFE06E92582F8E2222F
:0D09E700E58229F582E5833AF583E4932249
:00000001FF
