:10052100010D00010800012400020B00000222005D
:100531000002360000023800001125523A30202016
:10054100473A302020593A3020202000020900008B
:1000260075985075C83475CBFF75CAD975CDFF75EF
:10003600CCD9D2ACD2AF1205521200031205BE12B1
:1000460005967B007A0079257D01E4FF1204BA0546
:100056000AE50A70020509C39498E509943A500C1A
:100066007B007A0079257D01E4020167C3E50A94E5
:0A007600A8E5099461400302016D42
:10008000E4F53A743B253AF87620053AE53AB4109F
:10009000F2753B24753C3AAE22AF237C007D64129E
:1000A000032F7C007D0A12032FED2430F53DAE2294
:1000B000AF237C007D0A12032F7C007D0A12032FE0
:1000C000ED2430F53EAE22AF237C007D0A12032FD3
:1000D000ED2430F53F75402375413AAE36AF377C9D
:1000E000007D6412032F7C007D0A12032FED243063
:1000F000F542AE36AF377C007D0A12032F7C007DBF
:100100000A12032FED2430F543AE36AF377C007D65
:100110000A12032FED2430F54475454675463AAE74
:1001200038AF397C007D6412032F7C007D0A1203F6
:100130002FED2430F547AE38AF397C007D0A12032D
:100140002F7C007D0A12032FED2430F548AE38AF26
:10015000397C007D0A12032FED2430F549E4F54B7C
:0B016000FB7A00793B7D01FF1204BA1E
:10016B008005E4F509F50AE5086401600302005512
:0B017B00F508E50E642460030202F0AA
:10018600F53BF53CF53D753E01E53EC3950D400357
:1001960002024C740E253EF8E664527030053EF5B8
:1001A6003BE53EC3950D5023740E253EF8E6FFC38E
:1001B60094304017EFD394395011EF24D0FFE53B2C
:1001C60075F00AA42FF53B053E80D6153E740E2524
:1001D6003EF8E664477030053EF53CE53EC3950DB6
:1001E6005023740E253EF8E6FFC394304017EFD334
:1001F60094395011EF24D0FFE53C75F00AA42FF591
:100206003C053E80D6153E740E253EF8E6645970D0
:1002160030053EF53DE53EC3950D5023740E253E53
:10022600F8E6FFC394304017EFD394395011EF240A
:10023600D0FFE53D75F00AA42FF53D053E80D615A5
:100246003E053E02018FE4F53A7425253AF87620FC
:10025600053AE53AB411F275255275263AE53BC3DF
:10026600940AE53B401675F00A842430F527E53BF1
:1002760075F00A84E5F02430F52880072430F52748
:10028600752820752920752A20752B47752C3AE587
:100296003CC3940AE53C401675F00A842430F52DDB
:1002A600E53C75F00A84E5F02430F52E800724300D
:1002B600F52D752E20752F20753020753159753224
:1002C6003AE53DC3940AE53D401675F00A842430AC
:1002D600F533E53D75F00A84E5F02430F534800702
:0A02E6002430F533753420E4F535BB
:1002F0007E007F147D007B007A00790E1203840259
:020300000055A6
:0300230002043C98
:0D043C00C0E0C0D075D000C000C006C007F1
:1004490030985EC298AF99050CE50C7002050BBF98
:10045900241A0523E52370020522752401750D0070
:10046900AE0D050D740E2EF8A6078035E524B401EE
:1004790030AE0D050D740E2EF8A607BF23160537ED
:10048900E537700205367508010539E53970020549
:1004990038752400E50DC394134006750D007524C5
:0604A90000309902C29927
:0B04AF00D007D006D000D0D0D0E03243
:1005AB008F51120581D290C291855180D292D292F5
:0305BB00C29222C7
:10056B008F51ED6003120581C290C291855180D2EB
:06057B0092D292C292220E
:100581007580FFC290D291D292D292E58020E7FB92
:05059100C2927F01226F
:100003007D017F3012056B7D017F0112056B7D0140
:0C0013007F0612056B7D017F0C02056B5F
:100596007D017F0112056B7D017F3412056B7D01A4
:0505A6007F3002056B2F
:0804BA008F4C8B4D8A4E894FD7
:1004C200E4F550EDC3940150027D01EDD394044054
:1004D200027D04534C0FED24FE600F146011146072
:1004E2001324037012430780800D43079080084352
:1004F200078880034307987D0112056BAB4DAA4E16
:10050200A94F855082758300120302FF6010E550E7
:0E051200C3941050091205AB0550054C80DE55
:0105200022B8
:0E05BE007FB07E15EF1FAC0670011E4C70F66C
:0105CC00220C
:100552007D05AC051DEC60107E1C7F65EF1FAA06B1
:0805620070011E4A60EC80F4F8
:01056A00226E
:030000000203B048
:0C03B000787FE4F6D8FD7581510203F758
:10030200BB010CE58229F582E5833AF583E02250B0
:1003120006E92582F8E622BBFE06E92582F8E222FA
:0D032200E58229F582E5833AF583E4932214
:10032F00BC000BBE0029EF8DF084FFADF022E4CCB2
:10033F00F875F008EF2FFFEE33FEEC33FCEE9DEC7B
:10034F00984005FCEE9DFE0FD5F0E9E4CEFD22EDC1
:10035F00F8F5F0EE8420D21CFEADF075F008EF2F0B
:10036F00FFED33FD4007985006D5F0F222C398FDFC
:05037F000FD5F0EA2299
:10038400EF4E6012EF60010EEDBB010B89828A8390
:10039400F0A3DFFCDEFA2289F05007F709DFFCA99D
:0C03A400F022BBFEFCF309DFFCA9F022F4
:1003BC00020026E493A3F8E493A34003F68001F231
:1003CC0008DFF48029E493A3F85407240CC8C33342
:1003DC00C4540F4420C8834004F456800146F6DF11
:1003EC00E4800B0102040810204080900521E47E7B
:1003FC00019360BCA3FF543F30E509541FFEE49306
:10040C00A360010ECF54C025E060A840B8E493A3CC
:10041C00FAE493A3F8E493A3C8C582C8CAC583CAF7
:10042C00F0A3C8C582C8CAC583CADFE9DEE780BEAF
:0105510000A9
:00000001FF
