:1008000001020408102040808182848890A0C0C129
:10081000C2C4C8D0E0E1E2E4E8F0F1F2F4F8F9FA99
:10082000FCFDFEFFFF00FF00FF00FF00FF00FF00D8
:10083000FF004772616465000000000000000000D6
:100840000000323032356A6900000000000000000C
:1008500000004C756775616E7A68690000000000E1
:100860000000323130363335000000000000000057
:1008700000004C61697765696A756E0000000000D0
:10088000000032313036343100000000000000003A
:10089000000057616E6771696875610000000000B3
:1008A000000032313036303300000000000000001C
:1008B0000000516979756E7A6865000000000000DB
:1008C00000003231303630340000000000000000FB
:0208D000000026
:030B6B0001310055
:100B1700E53190080093F4F5A00531E531C394322F
:060B27004003E4F5312259
:1008D200D296120AD0120A5B120B17E4F508E4F55D
:1008E20009FFE508C43354E02432F582E43408F504
:1008F20083E5822FF582E43583F583E493FE600D70
:10090200AD090509740A2DF8A6060F80D5AF0905B1
:1009120009740A2FF87620E4FFE508C43354E02472
:1009220042F582E43408F583E5822FF582E43583CB
:10093200F583E493FE600DAD090509740A2DF8A64E
:10094200060F80D5740A2509F8E4F6FB7A00790AC5
:100952001209F6120B61120AD00508E508C39405C4
:0809620050030208E00208DA6C
:100B2D008F30120AB7D290C291853080D292120BBB
:040B3D0052C29222EC
:100AE9008F30ED6003120AB7C290C291853080D26F
:070AF90092120B52C292227F
:100AB7007580FFC290D291D292120B52AF80EF3065
:080AC700E704AF8080F8C29241
:010ACF002204
:100A5B007D017F30120AE9120B527D017F0C120AC5
:100A6B00E9120B527D017F01120AE9120B527D0133
:0F0A7B007F06120AE97D017F34120AE9020B524D
:0A0B61007D017F01120AE9020B5228
:020B00008B2F39
:100B0200BD011153070FEF2480FFE4FD120AE9AF84
:040B12002F120B2D66
:010B160022BC
:0609F6008B2A8A2B892CDC
:1009FC00E4F52EAB2AAA2BA92C852E827583001226
:100A0C000A8A6004052E80EB120B61E4F52DE52DAE
:100A1C00C3952E5025E52DC39410501EAB2AAA2B3E
:100A2C00A92C852D82758300120A8AFB7D01AF2DBE
:100A3C00120B00120B17052D80D4E4F52D120B1799
:0E0A4C007F1E120B41052DE52DC3946440EF73
:010A5A002279
:0E0B52007FB07E15EF1FAC0670011E4C70F6D2
:010B60002272
:100AD0007D05AC051DEC60107E1C7F65EF1FAA062E
:080AE00070011E4A60EC80F475
:010AE80022EB
:100B4100AD071FED600A7EFFAD061EED60F280F875
:010B51002281
:0300000002096A88
:0C096A00787FE4F6D8FD7581310209B1F8
:100A8A00BB010CE58229F582E5833AF583E0225021
:100A9A0006E92582F8E622BBFE06E92582F8E2226B
:0D0AAA00E58229F582E5833AF583E4932285
:100976000208D2E493A3F8E493A34003F68001F2BD
:1009860008DFF48029E493A3F85407240CC8C33382
:10099600C4540F4420C8834004F456800146F6DF51
:1009A600E4800B0102040810204080900B6BE47E6B
:1009B600019360BCA3FF543F30E509541FFEE49346
:1009C600A360010ECF54C025E060A840B8E493A30D
:1009D600FAE493A3F8E493A3C8C582C8CAC583CA38
:1009E600F0A3C8C582C8CAC583CADFE9DEE780BEF0
:010B6E000086
:00000001FF
