:020000040800F2
:100000005804002049010008A5080008150600084A
:10001000C9070008850300089B19000800000000BC
:10002000000000000000000000000000D50A0008E9
:10003000B10300080000000045090008650C000835
:100040006301000863010008630100086301000800
:1000500063010008630100086301000863010008F0
:1000600063010008630100086301000863010008E0
:1000700063010008630100086301000863010008D0
:1000800063010008630100086301000863010008C0
:1000900063010008630100086301000863010008B0
:1000A00063010008630100086301000863010008A0
:1000B00063010008090F0008210F00086301000810
:1000C0006301000863010008630100086301000880
:1000D000630100089D170008630100086301000820
:1000E0006301000863010008630100086301000860
:1000F0006301000863010008630100086301000850
:10010000630100086301000863010008630100083F
:100110006301000863010008390F0008630100084B
:10012000630100086301000863010008630100081F
:10013000DFF810D000F014F9004800471D1C00083B
:10014000AFF3008058040020064880470648004767
:10015000FEE7FEE7FEE7FEE7FEE7FEE7FEE7FEE777
:10016000FEE7FEE7690C000831010008F0B480EA00
:100170000102D40F4200B2EB410F02D20246084600
:1001800011464A0042D0C30DDDB2C1F3C752AD1AC9
:10019000202D35DAC1F3160141F4000204B15242B8
:1001A000C5F1200602FA06F12A411044B3EBD05FF4
:1001B00023D0C4B1012DA0EBC35009DCF0BC4FF03B
:1001C000004202EAC352DBB200F5000000F099B829
:1001D000400000F1807000EBC350A0F1807040EA55
:1001E000D170490009E0490841EAC071A0EBC35051
:1001F00000F50000400800EBC350F0BC00F078B8F8
:100200006142012202EB4101001BF6E7F0BC70479E
:1002100081F00041AAE780F00040A7E780EA0102F0
:1002200010B502F00043400022D04A001FD0010E5A
:1002300001EB1261C0F35600C2F3560240F4000015
:1002400042F40002A0FB022000047F39140400D015
:10025000401C50EA124001D44000491EC2B20C06B4
:1002600004EBD010401C4008802A02D003E000209C
:1002700010BD20F00100002900DA0020184310BD55
:10028000C10F80EAE0700844CA079623002100F0FD
:1002900038B800F0004220F00040C10DC0F3160055
:1002A00040F400007F2901DA00207047962903DC22
:1002B000C1F19601C84001E096398840002AF4D087
:1002C0004042704730B50B460146002020220124F1
:1002D00009E021FA02F59D4205D303FA02F5491B14
:1002E00004FA02F52844151EA2F10102F1DC30BD2A
:1002F0000029A8BF7047401C490008BF20F001003A
:10030000704710B4B0FA80FC00FA0CF050EA010417
:1003100004BF10BC704749B1CCF1200421FA04F4A9
:1003200011FA0CF118BF012121430843A3EB0C0182
:10033000CB1D4FEA00614FEA102042BF002010BCE5
:10034000704700EBC35010440029A4BF10BC704795
:10035000401C490008BF20F0010010BC704700009D
:10036000064C074D06E0E06840F0010394E8070002
:1003700098471034AC42F6D3FFF7DEFE8C1D000820
:10038000AC1D000800BFFEE70146072323EA010277
:100390001202054B18684FF6FF031840034B184331
:1003A0001043014B186070470CED00E00000FA05A7
:1003B0007047000000B587B00121022000F0C4FAA8
:1003C0000121042000F0E0FAC020ADF80000042074
:1003D0008DF8030069461C4800F088F804A801F075
:1003E000D3F90020ADF810004FF6FF70ADF81400FF
:1003F0000020ADF81600ADF8120004A9134801F072
:1004000071F900231A460321104800F047FF01A8A4
:1004100000F0CCFF0A20ADF80C0001A90B4800F059
:100420006FFF0121094800F023FE01221146074811
:1004300000F0C5FF0021054801F025F9012103481E
:1004400000F01CFE07B000BD0008014000040040A1
:1004500000B587B00121042000F076FA01210820C0
:1004600000F092FAC020ADF8000004208DF80300DF
:1004700069461C4800F03AF804A801F085F900200C
:10048000ADF810004FF6FF70ADF814000020ADF885
:100490001600ADF8120004A9134801F023F9002357
:1004A0001A460321104800F0F9FE01A800F07EFF73
:1004B0000A20ADF80C0001A90B4800F021FF012132
:1004C000094800F0D5FD01221146074800F077FFEA
:1004D0000021054801F0D7F80121034800F0CEFDC6
:1004E00007B000BD000C0140000800402DE9F041BC
:1004F000024600250026002000230024002791F852
:1005000003C00CF00F0591F803C00CF0100CBCF107
:10051000000F03D091F802C04CEA050591F800C025
:10052000BCF1000F31D0146800202BE04FF0010C1B
:100530000CFA00F3B1F800C00CEA03069E4220D189
:1005400083004FF00F0C0CFA03F7BC4305FA03FCD1
:100550004CEA040491F803C0BCF1280F06D14FF017
:10056000010C0CFA00FCC2F814C00AE091F803C0B8
:10057000BCF1480F05D14FF0010C0CFA00FCC2F899
:1005800010C0401C0828D1D31460B1F800C0BCF1E1
:10059000FF0F34DD546800202EE000F1080C4FF00E
:1005A000010808FA0CF3B1F800C00CEA03069E42F9
:1005B00021D183004FF00F0C0CFA03F7BC4305FA6E
:1005C00003FC4CEA040491F803C0BCF1280F05D1E8
:1005D00000F1080C08FA0CF8C2F8148091F803C076
:1005E000BCF1480F07D100F1080C4FF0010808FAE0
:1005F0000CF8C2F81080401C0828CED35460BDE827
:10060000F0810246002093680B400BB1012000E00E
:100610000020704700BFFEE72DE9F05F04460D465D
:10062000281BFFF72DFE24490860244801684FF07D
:100630008040FFF7F3FD83461F4801685846FFF7E7
:10064000EAFD82461E4801685046FFF78FFD81464D
:100650004FF08041FFF7E2FD0746174801684FF071
:100660008240FFF7DBFD82461448016812480068AB
:10067000FFF7CEFD83461349FFF7D0FD8146514673
:10068000FFF774FD80463946FFF770FD06460E48B9
:1006900001683046FFF76AFD0B49086006480068AC
:1006A0000649086008460068054908600648006871
:1006B000FFF7EFFDBDE8F09F48000020500000204C
:1006C000540000200000A0414C00002008B501218A
:1006D000082000F059F90820ADF8000010208DF82E
:1006E000030002208DF8020069460348FFF7FEFE72
:1006F00000200249086008BD000C01408C812142A5
:1007000001464906084A926942F00102064B9A6185
:10071000064A526822F0E062044B5A601A46526858
:100720000A435A6070470000001002400000014078
:1007300010B500F001F810BD08B50121042000F04B
:1007400023F94FF48070ADF8000048208DF80300C5
:1007500069460248FFF7CAFE08BD000000080140D4
:1007600010B5044600F022F801280BD1601C0D4999
:100770000988B1EB400F0ADA0A480088401C094991
:10078000088004E0002007490880074908800548E0
:100790000088022803D101200349088010BD0020F1
:1007A000FCE700003E0000203C00002010B54FF4A4
:1007B00080710448FFF725FF08B9012010BD002013
:1007C000FCE700000008014000BFFEE708B501217A
:1007D000102000F0D9F84FF47070ADF80000182028
:1007E0008DF8030003208DF8020069460148FFF7E9
:1007F0007DFE08BD0010014030B587B005460C46AF
:100800000121480300F0C0F8254800F053FC681EA1
:1008100080B2ADF81400ADF810400020ADF816001D
:10082000ADF8120004A91E4800F05CFF6020ADF88E
:1008300000000120ADF802000020ADF80600ADF880
:1008400008006946164800F0C3FD6946144800F0E8
:1008500015FE6946124800F071FE6946104800F026
:10086000C7FE01210E4800F015FC08210C4800F0DD
:10087000FBFD08210A4800F053FE0821084800F05B
:10088000ADFE0821064800F0F1FE0121044800F009
:10089000E3FB0121024800F0F1FB07B030BD00008E
:1008A000003401407047000070B5002100230F2282
:1008B000C47804B3154C246804F4E064C4F5E0641F
:1008C000210AC1F10403CA40447804FA03F1847890
:1008D0001440214309010E4C0678A155047804F018
:1008E0001F050124AC4005786D11AD0005F1E02530
:1008F000C5F8004109E0047804F01F050124AC406C
:10090000044D0678761145F8264070BD0CED00E0E8
:1009100000E400E080E100E00146002902DD01F290
:1009200014507047002902DAA1F21450F9E7084682
:10093000F7E703461846884200DD0846904200DA91
:10094000104670477047000029B1064AD269024339
:10095000044BDA6104E0034AD2698243014BDA6155
:10096000704700000010024029B1064A1269024394
:10097000044B1A6104E0034A12698243014B1A6175
:10098000704700000010024029B1064A92690243F4
:10099000044B9A6104E0034A92698243014B9A61D5
:1009A000704700000010024029B1064AD268024395
:1009B000044BDA6004E0034AD2688243014BDA60F8
:1009C000704700000010024030B5002100220024D2
:1009D00000232D4D6D6805F00C0121B1042905D0CF
:1009E000082923D105E0294D056022E0274D056047
:1009F0001FE0254D6D6805F47012234D6D6805F4F8
:100A00008034022505EB92421CB9214D5543056007
:100A10000BE01D4D6D6805F400351DB11C4D5543AF
:100A2000056002E0194D5543056002E0174D056071
:100A300000BF00BF144D6D6805F0F0010909154DA8
:100A40006B5C0568DD4045600F4D6D6805F4E06145
:100A5000090A104D6B5C4568DD4085600A4D6D6884
:100A600005F46051C90A0B4D6B5C4568DD40C560FB
:100A7000054D6D6805F44041890B074D6B5CC568F9
:100A8000B5FBF3F5056130BD0010024000127A009D
:100A900000093D002000002030000020014611B177
:100AA00001290ED106E0094A128810B20022074B34
:100AB0001A8008E0064A128810B20022044B1A80FD
:100AC00001E0002000BF00BF704700002404004088
:100AD00024080040704710B500F002F810BD000077
:100AE0000CB50020019000903348006840F480303D
:100AF0003149086000BF3048006800F400300090C1
:100B00000198401C0190009818B90198B0F5A06FA9
:100B1000F1D12948006800F4003010B101200090A4
:100B200001E0002000900098012843D1234800688C
:100B300040F01000214908600846006820F00300DA
:100B400008600846006840F0020008601A484068E3
:100B5000194948600846406848600846406840F4C3
:100B6000806048600846406820F47C104860084671
:100B7000406840F4E81048600846006840F0807023
:100B8000086000BF0C48006800F000700028F9D031
:100B90000948406820F0030007494860084640685B
:100BA00040F00200486000BF0348406800F00C00BD
:100BB0000828F9D10CBD00000010024000200240BE
:100BC00000B503460A4623B900201B490880091DC9
:100BD00008802AB90020184908310880091D0880BA
:100BE000002B09DD184601F079F81349091D08802A
:100BF0000020091F088008E000200F49091D088017
:100C0000184601F06BF80C490880002A09DD1046EF
:100C100001F064F80849083108800020091D0880A7
:100C200009E00020044908310880104601F056F818
:100C300001490C31088000BD34340140042808D13A
:100C40004FF0E021096941F004014FF0E022116109
:100C500007E04FF0E021096921F004014FF0E022A4
:100C6000116170477047000010B51348006840F0EC
:100C700001001149086008464068104908400E49C3
:100C80004860084600680E4908400B49086008465D
:100C9000006820F4802008600846406820F4FE00C8
:100CA00048604FF41F008860FFF715FF4FF00060A9
:100CB0000449086010BD0000001002400000FFF869
:100CC000FFFFF6FE08ED00E0F0B50C4615460022E9
:100CD0000021068C4FF6FE773E400684028B018C85
:100CE0004FF60C7632407E1C06EA03162E43324342
:100CF000104EB0420ED0104EB0420BD0B0F1804F2B
:100D000008D00E4EB04205D00D4EB04202D00D4E6E
:100D1000B04206D14FF6FD76314044F00106314332
:100D200005E04FF6F576314044F001063143028389
:100D30000184F0BD002C014000340140000400405B
:100D400000080040000C0040F0B50C46154600229B
:100D500000210026078C4FF6EF7C07EA0C0707847A
:100D6000028B018C4FF6FF7707EA041640F6FF4727
:100D70003A404FF6FF7707EA03373A434FF6FF77DB
:100D800007EA05273A43114FB8420ED0104FB84238
:100D90000BD0B0F1804F08D00E4FB84205D00E4FA7
:100DA000B84202D00D4FB84206D14FF6DF77394036
:100DB00046F01007394305E04FF65F77394044F0BD
:100DC0001007394302830184F0BD0000002C01406C
:100DD000003401400004004000080040000C0040C6
:100DE000F0B50C461546002200210026078C4FF670
:100DF000FF6C07EA0C070784828B018C4FF6FF77A4
:100E000007EA04264FF60C773A404FF6FF7707EAD9
:100E100003172F433A43114FB8420ED0104FB84238
:100E20000BD0B0F1804F08D00E4FB84205D00E4F16
:100E3000B84202D00D4FB84206D14FF6FF573940A5
:100E400046F48077394305E04FF2FF57394044F4C8
:100E50008077394382830184F0BD0000002C01407B
:100E6000003401400004004000080040000C004035
:100E7000F0B50C461546002200210026078C4EF6E0
:100E8000FF7C07EA0C070784828B018C4FF6FF7703
:100E900007EA043640F6FF473A404FF6FF7707EA85
:100EA00005273A434FF6FF7707EA03373A43114FD6
:100EB000B8420ED0104FB8420BD0B0F1804F08D0DE
:100EC0000E4FB84205D00E4FB84202D00D4FB84277
:100ED00006D14DF6FF77394046F48057394305E097
:100EE00047F6FF57394044F48057394382830184E1
:100EF000F0BD0000002C014000340140000400401F
:100F000000080040000C00400448008803480088A6
:100F100020F00100014908807047000010040040E3
:100F2000044800880348008820F001000149088037
:100F3000704700001008004010B50121264800F05D
:100F4000CEF9002846D00121234800F094F8002073
:100F5000FFF7A4FD00B2214908800120FFF79EFDA4
:100F6000404200B21E4908801E48B0F900101B48DC
:100F7000B0F90000FFF750FB1B4908601B48B0F9AF
:100F800000101748B0F90000FFF746FB1849086049
:100F900015480068FFF7C0FC134908601448006852
:100FA000FFF7BAFC12490860124A51420E48006825
:100FB000FFF7BFFC0C4908600E4A51420C4800681C
:100FC000FFF7B7FC0A490860084601680648006850
:100FD000FFF7F6FD10BD00000010004002000020E9
:100FE000040000200600002040000020080000202F
:100FF000440000203CF6FFFF1FB501211020FFF741
:10100000A3FC41F61F40ADF804006320ADF80800D2
:1010100001A9104800F066FB01210E4800F028F8F5
:10102000012211460B4800F0CAF936208DF8000065
:1010300004208DF8010002208DF8020001208DF8B7
:1010400003006846FFF730FC0121024800F016F863
:101050001FBD00000010004021B1028842F0800254
:10106000028004E002884FF67F731A4002807047C6
:10107000CA4302827047CA430282704721B1028884
:1010800042F00102028004E002884FF6FE731A402B
:101090000280704731B1B0F8442042F40042A0F819
:1010A000442005E0B0F84420C2F30E02A0F844202A
:1010B0007047000010B504466848844208D10121F9
:1010C000C014FFF771FC0021E014FFF76DFCC4E0D1
:1010D000B4F1804F08D101210846FFF745FC0021FB
:1010E0000120FFF741FCB8E05D48844208D10121AE
:1010F0000220FFF739FC00210220FFF735FCACE0AD
:101100005848844208D101210420FFF72DFC00211A
:101110000420FFF729FCA0E05348844208D10121B4
:101120000820FFF721FC00210820FFF71DFC94E0B8
:101130004E48844208D101211020FFF715FC002100
:101140001020FFF711FC88E04948844208D10121B2
:101150002020FFF709FC00212020FFF705FC7CE0A0
:101160004448844208D101214014FFF71DFC0021AE
:101170006014FFF719FC70E03F48844209D1012157
:10118000C804FFF711FC00214FF40020FFF70CFC0E
:1011900063E03A48844209D101210805FFF704FCC5
:1011A00000214FF48010FFF7FFFB56E034488442E3
:1011B00009D101214805FFF7F7FB00214FF400108A
:1011C000FFF7F2FB49E02F48844208D1012140207B
:1011D000FFF7CAFB00214020FFF7C6FB3DE02A488D
:1011E000844208D101218020FFF7BEFB002180202E
:1011F000FFF7BAFB31E02548844208D10121801570
:10120000FFF7B2FB0021A015FFF7AEFB25E0204859
:10121000844209D101210804FFF7C6FB00214FF4E5
:101220008030FFF7C1FB18E01A48844209D1012140
:101230004804FFF7B9FB00214FF40030FFF7B4FB7F
:101240000BE01548844208D101218804FFF7ACFB6C
:1012500000214FF48020FFF7A7FB10BD002C0140B8
:101260000004004000080040000C00400010004056
:101270000014004000340140004C01400050014087
:101280000054014000180040001C004000200040B5
:10129000004001400044014000480140F0B50C46C8
:1012A00015461E460021002200230189028B038C73
:1012B0004FF6F877394021434FF6FC473A4040F269
:1012C00001173A434FF6DD773B404FF6FF7707EAC9
:1012D00006172F433B43018102830384F0BD30B5E1
:1012E0000246002000230024158A05EA010395899F
:1012F00005EA010413B10CB1012000E0002030BD6B
:1013000070B505460C46244885420ED023488542D8
:101310000BD0B5F1804F08D02148854205D0214837
:10132000854202D02048854200D100E000BF2088DD
:1013300050B92389A28861882846FFF7C5FCE18857
:10134000284600F0A2F925E0208804280AD1238944
:10135000A28861882846FFF7F7FCE188284600F05C
:101360009DF917E0208808280AD12389A28861887E
:101370002846FFF735FDE188284600F09CF909E092
:101380002389A28861882846FFF772FDE1882846F4
:1013900000F09AF970BD0000002C014000340140BB
:1013A0000004004000080040000C004000210180C3
:1013B0004180012181800021C180018170471AB1E3
:1013C00083890B43838102E083898B438381704748
:1013D00070B5002400220023058C4FF6FE763540C0
:1013E0000584028C8388048B4FF68F752C40B51EC4
:1013F0002C400D882C43751E2A400D892A434D88A8
:101400002A43144DA8420BD0134DA84208D0134DC7
:10141000A84205D0124DA84202D0124DA84213D1C5
:101420004FF6F7752A404D892A434FF6FB752A403F
:101430008D882A434FF6FF652B404FF6FF552B4012
:101440008D892B43CD892B4383800483CD8885866A
:10145000028470BD002C0140003401400040014076
:1014600000440140004801400A460021018B4FF62C
:10147000F7731940114301837047000070B50024D1
:1014800000220023058C4FF6EF7635400584028C50
:101490008388048B48F6FF752C404FF6FF452C409F
:1014A0000D884FF6FF7606EA05252C434FF6DF75CB
:1014B0002A400D8906EA05152A434D8806EA0515D6
:1014C0002A43154DA84202D0144DA8421DD14FF613
:1014D0007F752A404D894FF6FF7606EA05152A43A7
:1014E0004FF6BF752A408D8806EA05152A434FF648
:1014F000FF352B404FF2FF752B408D8906EA85059D
:101500002B43CD8906EA85052B4383800483CD8850
:101510000587028470BD0000002C014000340140AA
:101520000A460021018B4FF2FF7319404FF6FF73FB
:1015300003EA0223194301837047000070B50024B9
:1015400000220023058C4FF6FF6635400584028C8F
:101550008388848B4FF68F752C404FF6FC752C409A
:101560000D882C434FF6FF552A400D894FF6FF7624
:1015700006EA05252A434D8806EA05252A43154D26
:10158000A84202D0144DA8421DD14FF2FF752A4047
:101590004D894FF6FF7606EA05252A434FF6FF35BB
:1015A0002A408D8806EA05252A434EF6FF752B4012
:1015B0004DF6FF752B408D8906EA05152B43CD8925
:1015C00006EA05152B4383808483CD8885870284B2
:1015D00070BD0000002C0140003401400A4600218B
:1015E000818B4FF6F77319401143818370470000D8
:1015F00070B5002200230024058C4EF6FF7635409E
:101600000584038C8488828B48F6FF752A404FF648
:10161000FF452A400D884FF6FF7606EA05252A4346
:101620004DF6FF752B400D8906EA05352B434D8895
:1016300006EA05352B430B4DA84202D00A4DA842BD
:1016400008D14BF6FF752C408D894FF6FF7606EAE0
:1016500085152C4384808283CD88A0F84050038474
:1016600070BD0000002C0140003401400A460021FA
:10167000818B4FF2FF7319404FF6FF7303EA022389
:1016800019438183704781847047028B4FF6F3734F
:101690001A400283028B0A4302837047028B4FF287
:1016A000FF331A400283028B4FF6FF7303EA0123D4
:1016B0001A4302837047828B4FF6F3731A4082837A
:1016C000828B0A4382837047828B4FF2FF331A402A
:1016D0008283828B4FF6FF7303EA01231A438283CE
:1016E00070470000002202881D4B98420ED01D4B0F
:1016F00098420BD0B0F1804F08D01B4B984205D0D8
:101700001A4B984202D01A4B984204D14FF68F736D
:101710001A404B881A43174B984207D0164B9842F1
:1017200004D04FF6FF431A40CB881A4302808B88BF
:1017300083850B8803850A4B98420BD0094B98424E
:1017400008D00E4B984205D00D4B984202D00D4B5D
:10175000984201D10B7A03860123838270470000EF
:10176000002C01400034014000040040000800400B
:10177000000C0040001000400014004000400140F8
:1017800000440140004801404FF6FF718180002174
:101790000180C180418001727047000010B50024B3
:1017A00040F22551054800F034F830B1034800F00C
:1017B000EBF8C4B2204600F003F810BD0038014039
:1017C00010B5044600BF8021044800F015F8002839
:1017D000F9D02146014800F0DCF810BD0038014086
:1017E00021B1828942F40052828104E082894DF65F
:1017F000FF731A408281704702460020B1F5007FD6
:1018000000D100BF13880B400BB1012000E0002085
:10181000704770B50246002400230025002040F6E2
:101820006A16B14200D100BFC1F3421501F01F0397
:10183000012606FA03F3012D02D19689334006E012
:10184000022D02D1168A334001E0968A33400C12F1
:10185000012606FA04F41688344013B10CB10120B5
:1018600000E0002070BDF0B50346002400260025EE
:10187000002040F66A17B94200D100BF1846C1F3F4
:10188000421401F01F06012707FA06F5012C01D1C9
:101890000C3004E0022C01D1103000E014301AB1F9
:1018A00007682F43076002E00768AF430760F0BD99
:1018B0002DE9F04786B005460E460024A24600BF3B
:1018C000A1460027B08900B100BF2F462C8A4CF6F4
:1018D000FF700440F08804432C82AC894EF6F3106C
:1018E0000440B08831890843718908430443AC81BE
:1018F000AC8A4FF6FF400440B0890443AC8201A893
:10190000FFF762F81F48874202D1DDF810A001E01E
:10191000DDF80CA0A88900F4004040B10AEBCA0031
:1019200000EB0A1031684900B0FBF1F807E00AEB60
:10193000CA0000EB0A1031688900B0FBF1F864209E
:10194000B8FBF0F004012009642101FB1089A8898B
:1019500000F4004040B1322000EBC900B0FBF1F0D0
:1019600000F00700044308E0322000EB0910642176
:10197000B0FBF1F000F00F0004432C8106B0BDE88D
:10198000F08700000038014001468888C0F3080055
:101990007047C1F308028280704700BFFEE7000075
:1019A0000FB4054B10B503A9044A029800F018F8CB
:1019B00010BC5DF814FB0000011C0008380000207A
:1019C00002E008C8121F08C1002AFAD17047704708
:1019D000002001E001C1121F002AFBD17047000066
:1019E0002DE9FF4F89B09B460446002506E02528D7
:1019F0000BD05A460B999047641C6D1C2078002828
:101A0000F5D10DB02846BDE8F08F0027B846012279
:101A1000474900E0074314F8013F203B02FA03F076
:101A20000842F7D120782E2819D114F8010F47F079
:101A300004072A280ED06FF02F022078A0F1300181
:101A400009290CD808EB880102EB410100EB0108E1
:101A5000641CF2E70A98641C50F8048B0A90207802
:101A60000028CED0642808D0692806D075281ED05A
:101A70005A460B9990476D1C58E00A994FF00A0995
:101A800001C90A91002802DA40422D2102E03905FD
:101A900004D52B218DF82010012103E0F90704D093
:101AA0002021F7E78A4608AE0DE00021FAE70A99FF
:101AB0004FF00A0901C90A91F7E74946FEF702FC0F
:101AC000303106F8011D0028F7D1ADEB060000F11A
:101AD0002009780701D44FF00108C84502DDA8EBC2
:101AE000090000E000208046002706E008A85A46CA
:101AF000C05D0B9990476D1C7F1C5745F6DB04E0D9
:101B000030205A460B9990476D1CB8F10001A8F19E
:101B10000108F5DC05E016F8010B5A460B999047D1
:101B20006D1CB9F10001A9F10109F4DC641C65E741
:101B30000928010010B50220FEF726FC00F01CF871
:101B40000220FEF7DDFD0120FEF7DAFDFEF7BEFD07
:101B50004FF4E13000F0CAF8FEF7EAFDFEF736FE7A
:101B600000214FF43460FEF747FEFEF723FCFEF73A
:101B70006FFCFFF741FA10BD10B50E4800680E4922
:101B8000B0FBF1F0C4B26FF00400FFF757F8E117B3
:101B900004EB5171C910094A11701046007800EB2E
:101BA0004001C1EBC0104FF6FF7101EAC0000449CB
:101BB000088010BD0C00002040420F0034000020BF
:101BC0003600002001460D4A12884A434FF0E023B8
:101BD0005A6100229A6101221A6100BF4FF0E0228F
:101BE000106900F001021AB100F48032002AF5D029
:101BF00000224FF0E0231A619A61704736000020FE
:101C000000BF054A128802F04002002AF9D0C2B291
:101C1000014B1B1D1A80704700380140FFF78AFFF7
:101C20003FE02048B0F900201F48B0F900101FA085
:101C3000FFF7B6FEC820FFF7C5FF0120FEF790FDB5
:101C4000A8B11EA0FFF7ACFE2048006808B901202B
:101C500000E000201D4908601D480078401C1C4918
:101C6000087008460078042801DB00200870184836
:101C70000078012805D128201649088016490880D7
:101C80000FE013480078032806D16FF013001149C4
:101C900008801149088004E000200E4908800E49A0
:101CA0000880BEE704000020020000204C3A2564B2
:101CB0000920523A25640D0A000000004B65792086
:101CC00070757420646F776E210D0A008C8121423B
:101CD0000000002006000020080000200146002926
:101CE00001DA484200E008467047000010B586B0AF
:101CF0000446012144F20400FEF746FE4FF4007052
:101D0000ADF8140003208DF8160018208DF8170088
:101D100005A91C48FEF7EAFB4FF48060ADF81400FB
:101D200004208DF8170005A91648FEF7DFFB019483
:101D30000020ADF80800ADF80A00ADF80C00ADF8D1
:101D400010000C20ADF80E0001A90F48FFF7B0FD00
:101D5000002240F225510C48FFF785FD01210A4879
:101D6000FFF73EFD25208DF8000000208DF80100D2
:101D700001208DF802008DF803006846FEF794FDFF
:101D800006B010BD0008014000380140AC1D00083D
:101D90000000002058000000C0190008041E0008C0
:101DA0005800002000040000D019000800000000C6
:101DB000000000000000000000A24A040000000033
:101DC00000000000010203040607080900000000EB
:101DD00001020304010203040607080902040608BD
:101DE00000000000000000000000000000000000F3
:101DF00000000000000000000000000000000000E3
:041E000000000000DE
:0400000508000131BD
:00000001FF
