:0D08C400EFD3940040077EFFDEFE1F80F39F
:0108D1002204
:0D08D200D2A0D2A1D2A2D2A3D2A4D2A5223C
:10080000C29302089420B71A7F0A1208C420B708BE
:100810001208D2C2A07580F930B7FD7F0A1208C451
:10082000807220B61A7F0A1208C420B6081208D2B5
:10083000C2A17580A430B6FD7F0A1208C48055207D
:10084000B51A7F0A1208C420B5081208D2C2A275D0
:1008500080B030B5FD7F0A1208C4803820B41A7FFA
:100860000A1208C420B4081208D2C2A375809930B5
:10087000B4FD7F0A1208C4801B20B3217F0A12082E
:10088000C420B3081208D2C2A475809230B3FD7F91
:100890000A1208C41208D27580C002080530B203DB
:1008A0000208057F0A1208C420B2081208D2C2A5A5
:1008B00075808230B2FD7F0A1208C41208D275809A
:0408C000C002080565
:030000000208DF14
:0C08DF00787FE4F6D8FD75810702080060
:00000001FF
